:0C0924000A083F065B4F666D7D077F6F81
:10091000EF4E600F7D027CEFDCFEDDFCEF1F70F020
:030920001E80ED49
:0109230022B1
:10088C00EF14B4080050549008A175F003A4C5836C
:10089C0025F0C583730208B90208BD0208C102081D
:1008AC00C50208C90208D10208D90208E1C2A48015
:1008BC000EC2A48012C2A48016C2A4801AD2A4C2F2
:1008CC00A3C2A28016D2A4C2A3D2A2800ED2A4D25A
:1008DC00A3C2A28006D2A4D2A3D2A274082DF8E699
:0D08EC00F5807F017E00120910E4F58022E6
:1008F9007D017F0112088C7D027F0212088C7D0325
:070909007F0312088C80E956
:03000000020800F3
:0C080000787FE4F6D8FD758111020847EE
:10080C000208F9E493A3F8E493A34003F68001F201
:10081C0008DFF48029E493A3F85407240CC8C333ED
:10082C00C4540F4420C8834004F456800146F6DFBC
:10083C00E4800B0102040810204080900924E47E1F
:10084C00019360BCA3FF543F30E509541FFEE493B1
:10085C00A360010ECF54C025E060A840B8E493A378
:10086C00FAE493A3F8E493A3C8C582C8CAC583CAA3
:10087C00F0A3C8C582C8CAC583CADFE9DEE780BE5B
:0109300000C6
:00000001FF
