:0C0B5C0048656C6C6F20576F726C640071
:030B7C0001220053
:100A8600120B397BFF7A0B795C7D017F01120AB16B
:100A96007590FF1209208F22E52260F7FB7A007518
:0B0AA6000C027D017F02120AF280E8C2
:100B2500EF4E600F7D027CEFDCFEDDFCEF1F70F009
:030B35001E80ED32
:010B3800229A
:060B4D00C2A58F80D2A7B3
:080B53007F027EEFDEFEDFFCF5
:010B5B002277
:0A0B6800C2A6120B4DC2A7020B53E8
:100AD400CFCDCFCECCCE12083F7C007D0A12083F8A
:040AE400ED2430FFCE
:0A0AE800D2A6120B4DC2A7020B5359
:100B0F00AE07BE0104ED148006BE0209ED243F447A
:060B1F0080FF120B6822AA
:100B39007F38120B687F0C120B687F06120B687FD7
:040B490001020B6832
:0A0B7200AC03120B0FAF04020AE8F7
:060AB1008B088A09890A86
:100AB700120B0FE4FDAB08AA09A90A8D8275830002
:0C0AC700120800FF6006120AE80D80E92A
:010AD3002200
:0C0A53007F0AEA24FFFDE434FFFC7E0073
:080A5F008E0D8F0E8C0F8D101F
:100A67007F017E00E4FBEBC39510E50F6480F8740B
:0E0A77008098500AAC0DAD0E12082D0B80E8D1
:010A8500224E
:040AF2008A0A8B0BD6
:100AF600120B0FAA0CEAD39400400D120A53AC0A4B
:080B0600AD0B120AD41A80EDB8
:010B0E0022C4
:1009A800120B0FC3EA64809480400B7F2B120AE875
:1009B8008A168B17800E7F2D120AE8C3E49BF51761
:1009C800E49AF516AA15EAD39400400D120A53AC1E
:0909D80016AD17120AD41A80EDC5
:0109E10022F3
:0409E2008A1A8B1BC7
:1009E600120B0FAA1CEAD3940040297F10120A5555
:1009F600AC1AAD1BCFCDCFCECCCE12083FEF540FE5
:100A0600FEC3940AEE5004243080022437FF120AF3
:040A1600E81A80D189
:010A1A0022B9
:040A1B008A1F8B2083
:100A1F00120B0FAA21EAD394004028EA24FFFDE429
:100A2F0034FFFC7F027E00120A5FAC1FAD20CFCDDA
:100A3F00CFCECCCE12083FEF54012430FF120AE87C
:030A4F001A80D238
:010A52002281
:10092000E4F508F50975900FE590640F60777F1482
:100930007E00120B25E590640F6067AF90EF24F501
:10094000601024FE601114601324077012750901F1
:10095000800D750902800875090380037509047507
:1009600090F0AF90EF2450601124E0601124F0600B
:100970001124707013850909800E740480067408B0
:100980008002740C2509F509C3E508648094B2500F
:1009900011E59064F0600B7F147E00120B250508B2
:0709A00080E6AF09227F0091
:0109A700222D
:030000000208945F
:0C089400787FE4F6D8FD7581220208DBB5
:10080000BB010CE58229F582E5833AF583E02250AD
:1008100006E92582F8E622BBFE06E92582F8E222F7
:0D082000E58229F582E5833AF583E4932211
:10082D00EF8DF0A4A8F0CF8CF0A428CE8DF0A42EDF
:02083D00FE2299
:10083F00BC000BBE0029EF8DF084FFADF022E4CC9D
:10084F00F875F008EF2FFFEE33FEEC33FCEE9DEC66
:10085F00984005FCEE9DFE0FD5F0E9E4CEFD22EDAC
:10086F00F8F5F0EE8420D21CFEADF075F008EF2FF6
:10087F00FFED33FD4007985006D5F0F222C398FDE7
:05088F000FD5F0EA2284
:1008A000020A86E493A3F8E493A34003F68001F2DE
:1008B00008DFF48029E493A3F85407240CC8C33359
:1008C000C4540F4420C8834004F456800146F6DF28
:1008D000E4800B0102040810204080900B7CE47E31
:1008E000019360BCA3FF543F30E509541FFEE4931D
:1008F000A360010ECF54C025E060A840B8E493A3E4
:10090000FAE493A3F8E493A3C8C582C8CAC583CA0E
:10091000F0A3C8C582C8CAC583CADFE9DEE780BEC6
:010B7F000075
:00000001FF
