:020000040800F2
:1000000058080020D5000008CD330008C72F00088D
:1000100000000000000000000000000000000000E0
:100020000000000000000000000000001B35000878
:1000300000000000000000001935000869360008C3
:10004000E7000008E7000008E7000008E7000008F4
:10005000E7000008E7000008E7000008E7000008E4
:100060000000000095070008A5070008E700000849
:10007000E7000008E1360008E7000008E700000894
:10008000E7000008E7000008E7000008E7000008B4
:1000900000000000E7000008E7000008E700000893
:1000A000E7000008E7000008E70000087D410008BD
:1000B000E7000008E7000008000000000000000062
:1000C0000348854600F00AFA0048004761420008EC
:1000D000580800200448804704480047FEE7FEE730
:1000E000FEE7FEE7FEE7FEE7DF360008C100000896
:1000F00030B50B46014600202022012409E00D46C0
:10010000D5409D4205D31D469540491B2546954047
:1001100040191546521E002DF1DC30BD70B500248B
:100120002546002801DA01244042002901DA012590
:100130004942FFF7DDFFAC4200D04042002C00D026
:10014000494270BDF0B51FB40646002082B0054696
:100150004024019100901BE0019922460F46304651
:1001600000F06AF9049A059B801A994110D3104651
:100170001946224600F016F8361A8F41019722469A
:1001800001200021009F00F00DF838184D4100902B
:100190002046641E0028DFDC019B00982946324679
:1001A00007B0F0BD10B5202A04DB0146203A91408B
:1001B000002010BD914020239C1A0346E3401943C0
:1001C000904010BD03460B439B0703D009E008C9CC
:1001D000121F08C0042AFAD203E00B780370401CF7
:1001E000491C521EF9D27047D2B201E00270401C85
:1001F000491EFBD270470022F6E710B513460A46A7
:1002000004461946FFF7F0FF204610BDF8B5024638
:100210004A40D40F42004B0052085B089A4202D277
:100220000246084611464A0023D0C30D4A00DDB2FB
:10023000120EAD1A202D35DA49020126490AF605BB
:100240008A19002C00D0524220214F1B1146B94080
:100250002A411018C20D9A4221D0002C17D0012D2E
:1002600008DCDA05801AD20F8019D207DBB200F061
:10027000FCF8F8BDDA05801A012340001B06C018FF
:1002800080185A428018CA0F1043490007E04908F5
:10029000C2071143DA05801A80194008801800F05F
:1002A000DCF8F8BD61000122511A001BF7E70122BA
:1002B000D2075140AAE70122D2075040A6E70246E2
:1002C00070B54A40D30FDB0740002DD04A002AD03A
:1002D000010E140E000212020919400A520A841873
:1002E000E50104465443000A120A2E045043A4199F
:1002F0004219200CC543AA18120C0125AD03521C4B
:10030000521912047F39240400D0521C104301D426
:100310004000491EC2B20C06C0092018401C40080B
:10032000802A02D003E0002070BD40084000002970
:1003300000DA0020184370BD70B502464A40D50F60
:1003400040004A00ED0740085208002814D0002A57
:1003500012D0C40DD30D41020120C0055202490A3A
:10036000520AE41A091812187D34914201D3641C10
:1003700000E04900002C01DA002070BD002391420A
:1003800001D3891A0343400849000028F7D1002906
:100390000AD0914202D10121C90705E0914201D260
:1003A000012101E00121C943E005C018401900F016
:1003B00054F870BD420005D04200120E52428A42EB
:1003C00001DB00207047C90508187047C217C10F2C
:1003D000504010B54018CA079623002100F045F898
:1003E00010BD10B500229623114600F03EF810BD56
:1003F000C20F410040020123400ADB05D207090E6B
:10040000C0187F2901DA00207047962903DC962363
:10041000591AC84001E096398840002AF4D0404279
:10042000704700000122D207002800DB101A0029C3
:1004300000DB511A8842704710B5202A04DB0846B9
:10044000203AD040002110BD0B46D340D04020249C
:10045000A21A91400843194610BD002904DA401C35
:10046000490001D140084000704770B40024050CD9
:1004700005D11024000402D1002921D01124050E39
:1004800001D100020834050F01D10001241D850FA0
:1004900001D18000A41C002801DB4000641C00295D
:1004A00008D020252E1B0D46F540A14000D001218B
:1004B0002943084301061B1B000ADB1D02D500204F
:1004C00070BC7047DB05181880180029F8DA401C4A
:1004D0004900F5D170BC400840007047064C01252A
:1004E000064E05E0E36807CC2B430C3C98471034DC
:1004F000B442F7D3FFF7E8FD30490008504900083F
:1005000070B50446006802F067FD002824D020681A
:1005100081688907C90F04D18168104A11401031E0
:10052000816001F047FA054612E001F043FA401BF2
:1005300002280DD920688068400709D5A06D1021D8
:100540000843A065E06D01210843E065084670BDE1
:10055000206880684007E8D4002070BDE8FFFF7F76
:1005600010B5846AA16D502211420DD1A06D0121F8
:1005700049020843A065206802F032FD00281BD024
:10058000A07E002807D017E0A16DC90624D520461B
:1005900000F054FD10BD2068016809070CD502F079
:1005A0001BFD0146012000290AD0A16D2022114324
:1005B000A165E16D0143E165204600F03DFD10BD00
:1005C00021684A680C239A434A60A16DFF220132D8
:1005D00091430143A165EFE7216D496B884710BD49
:1005E00010B5806A816D402211438165C16D04227E
:1005F0001143C16500F022FD10BD10B5806A00F006
:100600001CFD10BDF8B50446006881688907CD0F50
:1006100002F0DAFC00282AD0002D28D12068816859
:100620000522114010250126012914D18168114AA3
:100630001140891C816021680320086001F0BAF92B
:10064000074610E001F0B6F9C01B02280BD920685C
:100650008068C00707D0A06D2843A065E06D3043D7
:10066000E0650120F8BD20688068C007EAD100205D
:10067000F8BD0000E8FFFF7FF8B5044600200090B9
:10068000206802F0A1FC002845D120688168234A37
:1006900010261140002930D18168D5432940491CDA
:1006A00081601F48006807218905084000020AD5BB
:1006B0001D481C490068FFF71BFD401C00E0401E60
:1006C00000900028FBD1607E012824D001F072F94F
:1006D00007461BE002F078FC002804D120688168FE
:1006E0002940491C816001F065F9C01B02280DD921
:1006F00020680068C043C00708D0A06D3043A065E3
:10070000E06D01210843E0650846F8BD20680168F6
:10071000C943C907DED10020F8BD000017000080E2
:1007200008270140400D03003C00002030B50E4872
:1007300087B00EC801AC0EC407C80C4C0C4D009419
:100740000692059104902B4601AA0021094802F067
:10075000C9FE08482B4604AA00214830009402F044
:10076000C1FE07B030BD00001849000800F07F4509
:1007700000803B464C030020002808D0884201DD61
:1007800001207047904202DA0020C04370470020E9
:100790007047000010B5024800F0BCFE10BD00001C
:1007A0009002002010B5024800F0B4FE10BD000019
:1007B000BC00002010B50446006C09498008800088
:1007C00040186064207814210838FFF791FC044930
:1007D0008031A164C106C90E01208840E06410BDCB
:1007E000000802400179084B8906890E8A00D21858
:1007F0000265054A4432491E42658A07920F01216B
:100800009140816570470000FC080240F0B5846C9F
:10081000C56C6560046D002C02D0446D856D65600B
:100820000B4C6568066C1C273E400127B7403D43D2
:100830006560046863608368102B036803D0996067
:100840000068C260F0BD9A600068C160F0BD000041
:100850000000024010B524220549064802F0A8F81D
:1008600005480068016804229143016010BD000042
:10087000DC030020FC01002090020020FEB561494D
:100880000878C8287ED188781628FBD10A79CB78D9
:100890001002184340050C46400D2434208008798E
:1008A0001F27C20848797F0143011A435205520DA0
:1008B00062808A79800992001043CA7993021843B2
:1008C0004005400DA08050080A7AD3011843400526
:1008D000400DE08013094A7A15012B435B055B0D3F
:1008E0002381D3098A7A52001343CA7A55022B43D3
:1008F0005B055B0D638193080A7B95012B435B05C8
:100900005B0DA381497B5209C9000A43E281FF22A2
:10091000913251420192009171223B461201AE2167
:1009200003F081FCA0840F2105200191364D009039
:10093000A0883B462A46AE2103F075FC6084642102
:1009400048420191009020883B462A46AE2103F0A0
:100950006AFC2084C1134840401A1E2100260191E0
:1009600080B2322364220096314603F05CFC2546B7
:100970002035A872502148420191009060883B4682
:10098000712200E036E01201AE2103F04CFCE0845D
:10099000001D092800D2E6841B4822891B496F38B4
:1009A0008A4203D3824201D9012200E00022EA7286
:1009B0006389174A834201D9022305E09B18C72B9C
:1009C00001D2012300E000232B73E3898B4203D380
:1009D000834201D9012100E000216973A18981428C
:1009E00001D9022005E08818C72801D2012000E0C3
:1009F0000020A87324210348FFF7FDFBFFF72AFF1F
:100A0000FEBD0000DC030020130700001A040000F4
:100A10007BFCFFFF03218902884201DB0A4905E0D4
:100A200003218902C84204DC07494942401800B248
:100A30007047002801DB014600E04142034A653966
:100A40009142F5D20020704701F0FFFF9B0B0000A0
:100A500072B6FEE703494A6901231B0418430243A7
:100A60004A61704700200240044A5069044BC900A3
:100A70001840014303480143516170470020024080
:100A800007E0FFFF0200010030B505494C69012570
:100A90002C434C610260BFF36F8F436030BD000098
:100AA0000020024030B50B4C002362690125AD04E3
:100AB0002A436261EFF3108272B620C95B1C20C02A
:100AC000DBB2402BF9D32069C003FCD482F3108839
:100AD00030BD000000200240F8B5044600F06AFF77
:100AE000012706463F04124D06E0601C04D000F0CA
:100AF00061FF801BA04213D228693842F5D12869D2
:100B00000C4908400C4929610CD00C49486001206F
:100B1000F8BD601C06D000F04DFF801BA04201D341
:100B20000320F8BD28694003F3D40020F8BD00007D
:100B300000200240FAC30000FBC30000EC020020CA
:100B400010B50B461F21C906012441182404A142F7
:100B500003D201461846FFF735FB10BDF7B58CB040
:100B600000210B910791089109910A911F21C90653
:100B7000441801210904174606908C4217D24007F9
:100B800015D10D98002812D0002F10D000F050FE83
:100B900002200790E00A099001200A9004200890A2
:100BA0000BA907A800F0BCFD040029D102E0012038
:100BB0000FB0F0BD002621E00024254603940DE08F
:100BC0000D99EA00085C0021FFF7ECFA039A6D1C0E
:100BD00011430443EDB20391082D02D27019B842BB
:100BE000EED322460120039B069900F0F1FD04009C
:100BF00006D1069808300836B6B20690BE42DBD35E
:100C000000F0D2FD2046D3E770B5182217491848E6
:100C1000FFF796FF174B184A144900200C5C1C5430
:100C20000C1824791454401CC0B20428F6D3134B7A
:100C300000200A240A184443E418157A2572401C3F
:100C4000127BC0B262720428F3D3102200208C5CA5
:100C50008D186D7824022C430A254543921C401CB4
:100C6000C0B25C5392B20428F1D370BD3C040020A2
:100C700000F800080E0000200A00002008030020F1
:100C8000012803D0401C03D000207047084670475D
:100C90000148401A80B27047FF0F0000002801DAB7
:100CA00001207047002802DD0020C043704700206B
:100CB00070470000F0B50446002089B0254606467E
:100CC00040350290287D01280ED001272F7520463F
:100CD000FFF798FC0590206802F07AF90028A06DD3
:100CE00005D01021084388E0022009B0F0BDFF21A3
:100CF0000131884302210843A0652068C168414A48
:100D000011400491C168D2431140C16000212068A4
:100D1000826817239A43DB071A4382603A4A2068A5
:100D20000DE0029B5B1C0293934208D3A06D02214D
:100D3000884310210843A065002028754DE0836892
:100D4000DB0FEED18030406B491C4006400E861907
:100D50000829DCD33046FFF7CBF9014620688268CA
:100D60002A4B1A40521C826020680269920F920737
:100D700013D1274A12680F26B60432400726B6045C
:100D8000B2420AD3920C3E46D21E96407208019699
:100D900000E0521E0192002AFBD18030426BD20942
:100DA000D2010A434263206881681940891C81602E
:100DB00000F000FE064612E000F0FCFD801B022859
:100DC0000DD9206802F004F9002808D0A06D102188
:100DD0000843A065E06D3843E065012085E72068A1
:100DE00002F0F6F80028E7D12068C168049A1143A0
:100DF000C160A06D80088000401CA065002028759F
:100E0000059872E70380000000F20200E8FFFF7F10
:100E100008270140F8B500270646044640360097EB
:100E2000307D0D4601280FD001203075206802F07A
:100E3000D3F800280AD0A06D20210843A06501271F
:100E4000002030753846F8BD0220F8BD68680228D9
:100E50007ED001222169D207914202D0121D914217
:100E600006D120682968826A4903490B0A436EE06B
:100E7000C206D20E0F20216E9040814328684303A2
:100E800002D0C3074BD102E04000C00E48E0830708
:100E900001D5012044E0430701D5022040E00307CB
:100EA00001D503203CE0C30601D5042038E08306C9
:100EB00001D5052034E0430601D5062030E00306C5
:100EC00001D507202CE0C30501D5082028E08305C3
:100ED00001D5092024E0430501D50A2020E00305BF
:100EE00001D50B201CE0C30401D50C2018E08304BD
:100EF00001D50D2014E0430401D50E2010E00304B9
:100F000001D50F200CE0C30301D5102008E08303B6
:100F100001D5112004E0400301D5122000E000209B
:100F20009040014321666968E2698808401C90424C
:100F300010D820682B68826A9C46C906C90E0F2308
:100F40008B409A4363469B001B0F8B401A4300E083
:100F50003BE082622168AB6828684A6900028243EC
:100F600018404001400902434A612868002800DB1C
:100F700066E72B4A116807239B051940294B9842C5
:100F800014D10B0212D4C0020143104602F030F813
:100F9000264825490068FFF7ABF80C21401C484360
:100FA00000E0401E00900028FBD149E7204B98420A
:100FB00003D1CB0101D4800205E01E4B9842D7D16A
:100FC0004802D5D45802014325E001212069C90710
:100FD000884202D0091D884206D120682968826AA9
:100FE0004903490B8A43826228680028C0DA0C4A08
:100FF000116807239B0519400A4B984201D1C00292
:1010000008E00B4B984201D1800203E0094B984263
:10101000AED140028143104601F0EAFF10E7000024
:1010200008270140001000B0400D03003C000020E4
:10103000004000B8002000B47047704770470000BF
:10104000FEB50027044601973E4602970097002808
:1010500005D02546A06D2035002802D007E00120EC
:10106000FEBD204600F0FCF8E665542006552068D9
:101070008168C900C90F12D18168724A11400122EA
:1010800012071143816071486F490068FFF730F81B
:101090004000801C00E0401E00900028FBD120682A
:1010A0008168C900C90F08D1A16D10221143A16543
:1010B000E16D01221143E165174601F08DFFA16D3D
:1010C000C90601D4002804D0A06D10210843A065F2
:1010D000B4E0A06DFF210131884302210843A065DF
:1010E000206801F071FF00286DD1217EA06889037E
:1010F0000843617ECA03A17E4B031A431043226B4F
:10110000002A01D0012212031043E2681043226931
:10111000002A02DA5200520801E00122520510436F
:101120002A7B52001043019A10432A78012A09D1E0
:10113000002922D0A16D20221143A165E16D012279
:101140001143E165616A002906D0FF23C1331940CC
:10115000A26A0143104608432168CA683C4B1A4002
:101160000243CA606168029A890F8907E06C0A43EA
:1011700010432A7F012A04D00CE00121090408430E
:10118000E0E7636C226C491C1A43A36C0B431146C5
:101190001943084321680A692E4B1A4002430A6129
:1011A00003216068890788420DD0590788420AD018
:1011B0004900884207D0284A91680F239B0499432D
:1011C0001840014391600021626B206801F017FF15
:1011D0002249A26B206801F012FF0F202169C04351
:1011E00000291CD00122520591420AD121688A6A45
:1011F000227F9200121FD206D20E9040226E104320
:10120000886220684069616B4007400F88420BD1BB
:10121000E665A06D80088000401CA0650FE0216895
:101220008A6A02438A62ECE7A06D0221884310219A
:101230000843A065E06D01210843E06501273846B9
:10124000FEBD0000E8FFFF7F400D03003C000020D2
:101250000102DEFF02FCFF1F0027014004FFFF0721
:1012600070B586B0064614216846FEF7C4FF1D49D6
:101270003068884234D11C480268012109050A43BC
:10128000026000680840059017484038416B012211
:1012900011434163406B002510400590D120009020
:1012A00003200190052069460295000700F0D4FA5A
:1012B0000F4C0E482060A5600520E560606080202E
:1012C000206140006061E56180002562A0612046E8
:1012D00000F07CF9002801D0FFF7BAFB3465A66264
:1012E00006B070BD00240140401002401C000240C6
:1012F000BC000020F7B50446006801F06DFE002830
:1013000045D125464035287D012840D001272F753D
:101310002068C1681F4EC9070CD101F055FE002896
:1013200004D0206881683140891C81602068C168D0
:101330003943C1602046FFF79FF9002826D1A06DF0
:1013400015490840FF2101310843A0650020E065F0
:10135000226D1249D162226D11491163226D11492A
:10136000516322681C211160287520684168102291
:10137000114341602168206D4031029B019A00F0C9
:1013800077F921688A683240121D8A60FEBD02200A
:10139000FEBD0000E8FFFF7FFEF1FFFF61050008D2
:1013A000FB050008E1050008F8B50646044640368E
:1013B000307D012807D0012737752046FFF7A0F8B8
:1013C000050002D028E00220F8BD206D2521095C2F
:1013D000022907D100F024F8050003D0A06D4021B8
:1013E0000843A06520684168102291434160002DA8
:1013F000204602D0FFF706F909E0FFF703F90500E0
:1014000005D1A06DFF21013188433843A0652068D4
:10141000C16849084900C160002030752846F8BD00
:10142000F0B5002808D0014620314A79022A05D0BB
:101430000422C263002008710120F0BD0268136815
:101440000E24A3431360426C1468FF2301339C43B2
:101450001460026814686408640014600C4A5568DB
:10146000066C1C24264001242746B7403D435560A6
:10147000826CC56C5560026D002A05D015689D43CD
:101480001560826D406D42604C7100200871F0BDA6
:1014900000000240F8B500240246203251790229AA
:1014A00003D00421C16301242DE001680B680E25DF
:1014B000AB430B6001680B685B085B000B60416C21
:1014C0000B68FF250135AB430B6010494D68066C76
:1014D0001C231E4001231F46B7403D434D60816CD5
:1014E000C56C4D60016D002906D00E681D02AE432B
:1014F0000E60416D856D4D60537100211171816BDE
:10150000002900D088472046F8BD000000000240B6
:10151000C06B7047F0B42C490C6802681368056C06
:101520001C273D400426AE40264211D05E070FD551
:1015300013689B0603D4146804239C4314604B680F
:10154000046C04223C40A24013434B60016B1CE03E
:101550000227AF40064627402036002F19D09F07AC
:1015600017D513689B0605D413680A24A343136098
:10157000012272714B68046C1C2214400222A240AA
:1015800013434B6000213171C16A00291AD0F0BCAD
:1015900008470827AF40274214D01B0712D513680D
:1015A0000E24A34313604B68046C1C2214400122D8
:1015B0001546A5402B434B60C26372710021317107
:1015C000416BE2E7F0BC70470000024070B50400D8
:1015D0003FD02548256814212818FEF789FD800092
:1015E0002064022026462036707128681F49084072
:1015F0002860E168A06862690843216911430843D3
:10160000A1690843E1690843216A084321680A681F
:10161000104308602046FFF7CDF80121A068890338
:101620000025884200D165602079616C8006800EBB
:101630000860A06CE16C41606068401E03280AD815
:101640002046FFF7CFF8206D0560606DA16D416009
:1016500004E0012070BD25656565A565E563012091
:1016600070713571002070BDF8FFFDBF0F80FFFF66
:10167000F8B504468C4620300179002501290BD0AD
:101680000126067141790027012907D08021E163F5
:10169000077101252846F8BD0220F8BD02214171DD
:1016A000E7632068016849084900016061462046F7
:1016B000FFF7ACF8206B00282068016801D00E22EB
:1016C00005E0042291430160206801680A22114369
:1016D0000160606C0168CA03074902D502680A43C9
:1016E0000260206D002802D002680A430260206870
:1016F000016831430160CDE70001000070B5044688
:1017000000F058F90546601C02D0044800782418FF
:1017100000F050F9401BA042FAD370BD3000002009
:10172000F8B51F4E044630780F4601280AD0012034
:101730003070002070607D20C000FFF7CDF90028D8
:1017400002D029E00220F8BD042161602268042A49
:1017500003D0491F3960A56814E00846FFF77AF9FD
:101760007D20C000FFF7B8F916E029466068FFF752
:101770007BF97D20C000FFF7AFF9002801D03D6064
:1017800005E06D1CE268A1688918A942EDD80549F9
:101790004A6902239A434A6100213170F8BD000072
:1017A000EC0200200020024010B57D200124C00082
:1017B000FFF792F90548416982041143416140698C
:1017C000002800DA0024204610BD0000002002405E
:1017D000F0B51FB4144C06462078154601280AD0EF
:1017E0000120207000277D20C0006760FFF774F99A
:1017F000002803D010E0022005B0F0BD012E0DD06E
:1018000029460198FFF74EF97D20C000FFF764F9E3
:1018100006494A69B2434A612770EDE72A46039BAD
:101820000198FFF731F9EFE7EC02002000200240B9
:10183000064900204A69002A07DA054A8A60054AF3
:101840008A604969002900DA0120704700200240BF
:1018500023016745AB89EFCDF0B5002303249AE05F
:101860002A4601259D402A407ED00E79B607B60F44
:10187000012E01D0022E16D186682746B4465E009E
:10188000B646B7406646BE43B446CF687646B740D4
:101890006646374387604668AE430D79ED06ED0F27
:1018A0009D40354345600D79ED43AD0708D0C568CF
:1018B0005F002646BE40B5438E68BE402E43C660DC
:1018C0000D79AD07AD0F022D0ED1DD08AD002D183D
:1018D000AC462D6A5E07F60E0F27B740BD430F6971
:1018E000B7402F4365462F6205685F002646BE401D
:1018F000B5430E79B607B60FBE402E4306604D685D
:10190000AD03AD0F46D09E08264DB6007519AC4606
:101910002D6E9E07F60E0F27B740BD4305273F07E4
:10192000B84201D100270FE01F4FB84201D1012773
:101930000AE01E4FB84201D1022705E01C4FB84211
:1019400001D1032700E00527B7402F43154D664618
:1019500037662D684E689543F60200D51543114F42
:101960003D607D68954300E014E04E68B60200D506
:1019700015437D600B4D80356E684F689643BF03FD
:1019800000D516436E602E684F689643FF0300D55E
:1019900016432E605B1C0A681546DA4000D05FE7EC
:1019A000F0BD000000180240000400500008005084
:1019B000000C005001488068704700003000002093
:1019C00002488168027889188160704730000020E1
:1019D00010B50848002401688215114301600320F6
:1019E00000F00AF8002801D0012401E000F028F8F6
:1019F000204610BD0020024070B50F4E0024317803
:101A00000546002915D07D20C000FEF771FB014678
:101A10000A480068FEF76CFB00F03EFC002808D185
:101A2000042D06D200222946401E00F02BF87560D6
:101A300000E00124204670BD300000203C00002062
:101A400008B509480168012211430160006810408F
:101A5000009005484038C26B01040A43C263C06B62
:101A60000840009008BD000040100240002805DB3F
:101A7000C106C90E01208840014908607047000076
:101A800000E100E010B502F081FB10BDBFF34F8F05
:101A900004490348C860BFF34F8F00BFFDE7000053
:101AA0000400FA0500ED00E010B50F4C2168032298
:101AB0005202914301432160C11FFF39FA390ED10F
:101AC0000A480621006848430949FEF711FB401CFB
:101AD00002E0002805D0401E61694905F9D40020C4
:101AE00010BD032010BD0000007000403C0000202D
:101AF00040420F00F8B5044600680026664D80039A
:101B000058D5654800274038C06BC00009D46248EA
:101B10004038C26B01040A43C263C06B084001270E
:101B200000905E480168821511430160FFF742FF93
:101B3000009005E0FFF73EFF0099401A022825D8E3
:101B400056480068C005F5D5E86903210902084038
:101B50000FD0616A81420CD0E86903210902EA6969
:101B60008843012109040A43EA61EA698A43EA6178
:101B7000E861C0070FD0FFF71DFF009008E0FFF7F6
:101B800019FF0099411A4648814201D9032609E00C
:101B9000E8698007F3D5E869032109028843616A8F
:101BA0000843E861002F05D03B484038C26B010470
:101BB0008A43C2632078C00705D0686961688008DD
:101BC0008000084368612078C00606D56869032153
:101BD00089028843A168084368612088800506D58A
:101BE0006869032189048843616908436861208822
:101BF000400506D56869032109058843A1690843A2
:101C000068612078800606D5686903210903884346
:101C1000E168084368612088400411D56869E1697A
:101C200080008008084368610121E06989078842D3
:101C300006D119484038C168012212041143C1601D
:101C40002068800210D5686901218905226A8843CD
:101C500010436861206A884206D10F484038C16845
:101C6000012212061143C1602088000512D568695F
:101C700003218903884321690843686101212069A0
:101C80008903884206D104484038C1680122120401
:101C90001143C1603046F8BD401002400070004062
:101CA00088130000F8B50F46060043D04D4D286854
:101CB0004007400FB84213D22868C008C00038431C
:101CC0002860FFF777FE044605E0FFF773FE011B6F
:101CD0004548814261D828684007400FB842F4D196
:101CE0003068424C81070DD5400704D5A068072114
:101CF00009030843A060A0680F2109028843B16866
:101D00000843A0603078C00732D0706801280AD03C
:101D100002280BD000280FD03449403103280ED0C0
:101D2000C969890704E02168890301E02168890104
:101D3000002906DB0120F8BD21684905F8E7096A9A
:101D4000EFE7A168C908C9000143A160FFF732FEAF
:101D5000009006E0FFF72EFE0099411A22488142CA
:101D60001BD8A068382108407168C9008842F1D1A9
:101D700028684007400FB84217D91A480168C908B7
:101D8000C90039430160FFF715FE054607E0FFF77C
:101D900011FE411B1448814201D90320F8BD1148AE
:101DA00000684007400FB842F1D13078400706D5AF
:101DB000A068072109038843F1680843A06000F088
:101DC00031F8A1683C2289091140094A515CC906D1
:101DD000C90EC8400749086007480068FFF70CFEB5
:101DE000F8BD0000002002408813000000100240EF
:101DF000B84800083C00002034000020064807498D
:101E000000688968064A4904490F8900515CC9067F
:101E1000C90EC840704700003C000020001002407E
:101E2000F848000810B5204CA068204A8006400FF2
:101E300016D0A0688006410F501001290FD0A1686C
:101E40008906490F022912D0A0688006400F042895
:101E500023D0A0688006400F032821D0002010BDA9
:101E6000206801218004400F8140104612E0E168A3
:101E70008B07E1689B0F4906490F491C032B00D0D3
:101E80001046FEF735F9E1684904490E4843E16818
:101E9000490F491CFEF72CF910BD0120C00310BDED
:101EA0007D20000210BD0000001002400024F4005C
:101EB000F8B504007ED020783827C007ED4D002803
:101EC00046D0A868E96838408907890F102802D0F1
:101ED00008280BD001E0032908D001206268000423
:101EE00082420AD129680143296015E028688003ED
:101EF0002ED560680028DDD02AE0052301211B04CF
:101F000089049A422A6802D10A432A60EAE7824396
:101F10002A60286888432860606800280CD0FFF792
:101F200049FD064604E0FFF745FD801B642873D891
:101F300028688003F7D50BE0FFF73CFD064604E078
:101F4000FFF738FD801B6428F1D828688003F7D498
:101F50002078800769D5A868E96838408A07072192
:101F6000920FC902102802D0002813D001E0022AE3
:101F700010D0E068002846D02868884321690843CB
:101F800028602868FF21013108432860FFF712FD0F
:101F900006462CE02A68520502D5E268002A89D05C
:101FA0006A687F231B029A4363691B021A436A60B3
:101FB000002800E08DE00ED128688843216908439D
:101FC0002860286801218004400F8140AA48FEF75C
:101FD0008FF8AA490860AA480068FFF70DFD00289D
:101FE00077D122E0FFF7E6FC801B02289FD8286803
:101FF0004005F7D568687F210902884361690902B5
:102000000843686011E02968FF200130814329609E
:10201000FFF7D0FC064605E098E0FFF7CBFC801BFD
:10202000022884D828684005F7D42078954E000708
:102030002ED5A8688006400F03280AD0A069002882
:10204000306A16D0012108433062FFF7B3FC07461F
:102050000BE0306A80071BD5A06900289FD017E0ED
:10206000FFF7A8FCC01B022870D8306A8007F7D59C
:102070000EE0400840003062FFF79CFC074604E099
:10208000FFF798FCC01B022860D8306A8007F7D49D
:10209000207840076CD5A86800278006400F0428E8
:1020A00018D0E86BC00008D4E96B01200007014399
:1020B000E963E96B01400127009173480168C90594
:1020C00019D40168821511430160FFF773FC009079
:1020D0000DE083E0F06980074AD5A06800287DD034
:1020E00046E0FFF767FC0099401A02282ED86648A0
:1020F0000068C005F5D5A168012910D00420052984
:10210000F16911D049084900F161F1698143F16138
:10211000A068002816D0FFF74DFC00900EE0F06993
:1021200001210843F061F3E70143F161F7E7FFF7AD
:1021300041FC0099411A5548814267D8F0698007EF
:10214000F5D50EE0FFF736FC009007E05EE0FFF704
:1021500031FC0099411A4D48814257D8F0698007F7
:10216000F5D4002F04D0E86B012109078843E86308
:10217000E06900287BD0A9688906490F02294FD061
:10218000012636060228286805D0B0432860FFF7EC
:1021900011FC04463CE0B0432860FFF70BFC074607
:1021A00004E0FFF707FCC01B02282FD82868800135
:1021B000F7D4616A206AA26A0843E16A12021143F5
:1021C0000843216B0843616B0843E968304A1140BA
:1021D0000843E86028683043286000E045E0E8688C
:1021E000012109070843E860FFF7E4FB044604E027
:1021F000FFF7E0FB001B022808D828688001F7D50C
:1022000035E0FFF7D7FB001B022801D90320F8BDFA
:1022100028688001F5D4E8681E490840E86026E097
:102220000128F4D0E868226A8107890F91421CD105
:102230007021626A0140914217D17F21A26A09028E
:1022400001401202914210D11F214904E26A01406B
:1022500091420AD107214906226B0140914204D1E3
:10226000400F616B4007884201D00120F8BD00207B
:10227000F8BD0000001002400024F4003C000020E3
:10228000340000204010024000700040881300001D
:102290008C80C111FCFFFEEE094910B5401E88423A
:1022A00001D9012010BD074C60610321081F01F016
:1022B0006DFF0020A06107202061002010BD0000FC
:1022C000FFFFFF0000E000E070477047704700002C
:1022D000F0B5034620331A7F012A28D001221A774D
:1022E00002225A7704686268A568124FBC4205D181
:1022F00016460F22120596434A6832437026B243AF
:102300000E68164366600068B84206D00122920744
:10231000904202D0084A904204D1802289689543B5
:10232000294381600120587700201877F0BD0220F2
:10233000F0BD0000002C01400004004070B5040016
:1023400005D025462035687F002802D006E0012010
:1023500070BD00202877204600F016F8022068772C
:10236000211D206801F0C4F9012240342272AA77AD
:10237000EA7722706270A270E27022716271A271BB
:10238000E2716A77002070BD10B58CB00446282138
:102390006846FDF730FF1149206888421BD10120B3
:1023A00040050090002008906846FFF7A3FB002836
:1023B00001D0FEF74DFB0A480268C1140A430260CF
:1023C0000068002208400A9011460D20FFF75AFBD2
:1023D0000D20FFF74BFB0CB010BD0000002C01409E
:1023E00040100240014620314A7F012A01D00120DD
:1023F000704702224A7700680B490122884205D0C3
:102400009107884202D00949884207D18168084B68
:102410001940062905D0DB1F994202D001681143FB
:102420000160002070470000002C014000040040C3
:1024300007000100F8B5054604462035287F002630
:10244000012817D001272F7702206877226890682B
:102450002F4B1840FF231B029843906008685028B8
:1024600038D00EDC20284FD006DC00284CD01028B5
:102470001ED149E00220F8BD302845D0402817D1B0
:102480003AE060282ED0702818D001221203801A5A
:102490000FD090420CD1CB684A688968206801F05F
:1024A0007EF920688168012292031143816000E077
:1024B00001266F77002028773046F8BDCB684A6840
:1024C0008968206801F06BF92168886877221043D9
:1024D0008860EEE7CA684968206801F0C3FA5021B5
:1024E000206806E0CA684968206801F0CCFA6021DB
:1024F000206801F05FF9DCE7CA684968206801F0EC
:10250000B1FA40212068F4E7226801461046F0E75E
:1025100088FFCEFF70470000F8B504460068C66823
:1025200005690027A907002913DAB10711D5F91E9B
:10253000016101202077206880698007204602D051
:10254000FFF7E8FF04E000F0D3F8204600F0AAF916
:102550002777680716D5700714D504202168C04373
:10256000086102202077206880698005800F20465E
:1025700002D0FFF7CFFF04E000F0BAF8204600F0E9
:1025800091F92777280715D5300713D5082021683A
:10259000C0430861042020772068C0698007204676
:1025A00002D0FFF7B7FF04E000F0A2F8204600F0E9
:1025B00079F92777E80616D5F00614D5102021689A
:1025C000C0430861082020772068C0698005800F1B
:1025D000204602D0FFF79EFF04E000F089F8204675
:1025E00000F060F92777E80708D0F00706D001204F
:1025F0002168C0430861204600F0BAF9280601D4DA
:10260000A80407D5300605D521681348086120467F
:10261000FFF75BFEE80507D5300605D521680F48B2
:1026200008612046FFF750FE680608D5700606D5FB
:1026300040202168C0430861204600F09AF9A806AE
:1026400008D5B00606D520202168C0430861204681
:10265000FFF73CFEF8BD00007FDFFFFFFFFEFFFF3E
:1026600070B586B0044614216846FDF7C4FD012309
:1026700022689B0700251B49012002241A4E9A421A
:102680001CD14A6B02434A63486BC007C00F0590D8
:10269000486B20434863486B6A4620400590D81336
:1026A00031C205206946000703950494FFF7D4F86A
:1026B00008206A4631C2039504940DE00B4B9A4200
:1026C0000ED14A6B22434A63496B6A462140059109
:1026D000302132C20395049069463046FFF7BCF8BA
:1026E00006B070BD0010024000040050000400401D
:1026F0007047F8B504460020264620360090307F0B
:102700000D4601280CD00120082730770C2A48D02C
:1027100008DC002A10D0042A1ED0082A06D130E096
:102720000220F8BD102A52D0142A60D00120009057
:10273000002030770098F8BD206801F045F8206847
:1027400081693943816120688169042291438161F3
:10275000206881692A6911E0206801F073F8206817
:1027600081690122D202114381612068816952107E
:1027700091438161206881692A6912021143816154
:10278000D6E7206801F09CF82068C1693943C1612F
:102790002068C16904229143C1612068C1692A6926
:1027A00012E0206801F0CAF82068C1690122D20253
:1027B0001143C1612068C269012189028A43C26153
:1027C0002068C1692A6912021143C161B0E720681B
:1027D00001F0E8F82068416D394341652068426D99
:1027E00004218A4342652068416D2A6912E020680D
:1027F00001F006F92068416D0122D20211434165C2
:102800002068426D012189028A4342652068416D3A
:102810002A691202114341658AE770B5040005D0A8
:1028200025462035687F002802D006E0012070BDD3
:1028300000202877204600F017F802206877211D35
:10284000206800F055FF012240342272AA77EA770F
:1028500022706270A270E27022716271A271E271E4
:102860006A77002070BD000008B501220168920758
:102870000A48914206D1C16B01221143C163C06B6A
:10288000104008E0064A914206D1C26B02210A4379
:10289000C263C06B0840009008BD000000100240F9
:1028A000000400407047000010B5044602232030A9
:1028B00000290ED0042911D020464030082912D01A
:1028C0000C2915D0102918D0C278012A1AD001205D
:1028D00010BD827F012AFAD1837714E0C27F012ADA
:1028E000F5D1C3770FE00278012AF0D103700AE036
:1028F0004278012AEBD1437005E08278012AE6D1C3
:10290000837000E0C3700122206800F03BFF134990
:102910002068884205D0124A904202D0114A904263
:1029200004D1426C0123DB031A4342642068012274
:10293000884205D09107884202D00B49884207D1CE
:1029400081680A4B1940062905D0DB1F994202D045
:10295000016811430160002010BD0000002C0140FF
:10296000004401400048014000040040070001000D
:102970007047704710B5014680310A79012A15D099
:1029800001220A7124228A600268136814686408AC
:1029900064001460012252079343002242660068DB
:1029A0000360202088600A71104610BD022010BD0F
:1029B00010B504468030C068202801D0022010BD28
:1029C00000290BD0002A09D00123A0681B039842DC
:1029D00006D12069002803D1C80701D0012010BD0D
:1029E0000120E06600202067204601F029FB01005D
:1029F00003D1E06E012802D00121084610BD2068F5
:102A000010220262EFF31080012383F31088236801
:102A10001C6814431C6080F31088EEE710B5054A6B
:102A20000C46904204D1FDF715FF2046FDF726FF26
:102A300010BD0000FC010020704770B5044605463B
:102A40008034207901281AD0012020712420A06030
:102A50002868066802685208520002602868826886
:102A600007235B069A430A438260284601F01EF85A
:102A7000286806602020A0600020207170BD022020
:102A800070BD70B50446054680342079012819D000
:102A9000012020712420A06028680668026852087E
:102AA0005200026028688268D200D2080A4382601D
:102AB000284600F0FBFF286806602020A060002068
:102AC000207170BD022070BD70477047F8B5054693
:102AD00004468035A868EE6821688A6810271206C7
:102AE000002A1BDA212819D1EFF31080012282F38A
:102AF00010888A6880239A438A6080F31088E06F88
:102B0000002808D0FEF78CFC002804D0E06FFEF708
:102B1000FFFC202824D0204601F06EF92168886847
:102B200040061BD5222E19D1EFF31080012282F32B
:102B300010888A6840239A438A6080F31088286846
:102B4000002808D0FEF76CFC002804D02868FEF7A7
:102B5000DFFC202804D0204601F01CF90020F8BD3D
:102B60002F610320F8BD000010B5044600680C4931
:102B7000884213D10221016221680820086221687D
:102B8000042008622168012008622046FFF79EFFAA
:102B900020208034A060E060FDF75CFE10BD0000E6
:102BA00000380140F8B503680446D96918689A6886
:102BB000B44D0E462E4025468035002E75D0B24EBF
:102BC000B24F1640074037436ED0CF0706D0C70537
:102BD00004D501271F622B693B432B618B0708D566
:102BE000D30706D0276802233B622B6904273B43A7
:102BF0002B614B0708D5D30706D0276804233B6217
:102C00002B6902273B432B610B0709D52023034087
:102C1000334305D02668082333622E691E432E6194
:102C20000B0509D5430107D501232668DB02336272
:102C30002B69202633432B612B69002B42D0890658
:102C40000AD520210840C9050A40104304D0616F0D
:102C5000002901D0204688472869216889684906EB
:102C600002D42821084232D0204601F093F821688E
:102C70008868400627D5EFF31080012282F3108880
:102C80008B68402293438B6080F31088286800286B
:102C900019D07F4981632868FEF7FCFB002811D01A
:102CA0002868816B0DE000E017E08E0615D501273E
:102CB00020263F07064017403E430ED0616FB5E027
:102CC00020468847F8BD2046FFF74EFFF8BD204656
:102CD000FFF74AFF00202861F8BDE66E012E7DD186
:102CE000CE067BD5C60679D510221A62236898686D
:102CF000264640064036002849DA296808684068B8
:102D00000004000CE8D0B78B8742E5D9F08308684F
:102D10000068800634D4EFF31080012181F310881D
:102D200019681701B943196080F31088EFF3108018
:102D3000012181F3108821688B685B085B008B6040
:102D400080F31088EFF31080012181F3108821684F
:102D50008B684027BB438B6080F310882020E8609D
:102D60000020E066EFF31080012181F310882168D4
:102D70000B6893430B6080F310882868FEF750FBC4
:102D800002202067B08BF18B401A81B235E0B08B06
:102D9000F18B401A81B2F08B00289DD000299BD086
:102DA000EFF31080012686F310881E68FF27213775
:102DB000BE431E6080F31088EFF31080012383F37D
:102DC000108823689E68304FFF433E409E6080F32A
:102DD00010882020E8600020E06600E011E06067D5
:102DE000EFF31080012383F3108823681D68954357
:102DF0001D6080F31088022020672046FFF70EFE3A
:102E0000F8BDCE0208D5560206D50120000518628D
:102E10002046FFF75AFEF8BD0E060BD50127802687
:102E2000FF0506403A40164304D0A16F002900D0A8
:102E300046E7F8BD4A0614D5420612D52046EFF300
:102E40001081012282F310881A684024A2431A607C
:102E500081F310882021A9600021816700F0B2F879
:102E6000F8BD0A0205D5420003D52046FFF72CFE27
:102E7000F8BDC901FCD50028FADA2046FFF7DCFDD1
:102E8000F8BD00000F080000010000102001000440
:102E9000753C000870B5040005D025468035A8684B
:102EA000002802D006E0012070BD002028712046D5
:102EB00000F026F82420A86020680168490849002D
:102EC0000160A06A002802D0204600F011FE2046D2
:102ED00000F0B0FF0128E7D0206841680922D20243
:102EE00091434160206881682A2291438160206873
:102EF0000168012211430160204600F05FFE70BDB1
:102F000070B590B0064614210AA8FDF774F928217F
:102F10006846FDF770F925493068884244D10120A0
:102F20000025009001956846FEF7E4FD002801D0D9
:102F3000FDF78EFD1E480268012189030A430260E5
:102F4000006808400F901A484038426B02210A433B
:102F50004263406B0AAA08400F90C02023C20D951F
:102F60000AA914480E95FEF777FC144C124820600D
:102F7000A5603220E56060606561A561E561802043
:102F8000256220612046FEF721FB002801D0FDF7D5
:102F90005FFD80208451002211461B20A662FEF7AF
:102FA00071FD1B20FEF762FD10B070BD00380140BE
:102FB000401002400004005008000240900200202F
:102FC000704770477047FEE78068C007C00F7047C2
:102FD0008068C007C00F704780684007C00F704707
:102FE000C0680005800F01D00020704701207047A5
:102FF000026807239B059A430A430260704710B595
:1030000043690424214007248C40A3438A4013438E
:10301000436110BD3EB500242A480094019428491C
:103020000294016084600905C4604160042549126E
:103030004561016104764476847601462031C5619C
:103040000C70446284620C730463446384630C7781
:10305000C464FDF7F5FF002801D0FDF7F9FC01205D
:1030600000900194694602941648FDF7D3FE0028AB
:1030700001D0FDF7EDFC1448009069460195114818
:10308000FDF7C8FE002801D0FDF7E2FC0F480090D4
:103090000820019069460B48FDF7BCFE002801D0CE
:1030A000FDF7D6FC0A4800900C20019069460548BF
:1030B000FDF7B0FE002801D0FDF7CAFC3EBD0000C0
:1030C00000240140580000201000001040000018AB
:1030D0008000001C08B50C48816B012211438163FC
:1030E000806B10400022009011460920FEF7CAFCB8
:1030F0000920FEF7BBFC002211460A20FEF7C2FCA5
:103100000A20FEF7B3FC08BD0010024008B50848CD
:10311000416B012211434163416B11400091426BAD
:1031200002210A434263406B0840009008BD000042
:103130000010024010B588B0002405940694184889
:1031400003940494009401941449029401603F2173
:10315000846041600461446112498461C160FFF789
:10316000EDF8002801D0FDF773FC01200003039067
:1031700003A90B48FFF75EF9002801D0FDF768FCB2
:1031800000940194694606480294FFF7A1F80028CC
:1031900001D0FDF75DFC08B010BD0000002C01401F
:1031A00018010020FFF9000010B58AB00024079430
:1031B00008941C2168460994FDF71DF801211B485D
:1031C000890701603F21846041600461184984617E
:1031D000C160FFF722FB002801D0FDF739FC0794FE
:1031E00007A912480994FFF773F8002801D0FDF7EA
:1031F0002FFC602000900194029400226946049400
:103200000A48FFF776FA002801D0FDF721FC0422D6
:1032100069460648FFF76DFA002801D0FDF718FC53
:103220000248FFF71DFA0AB010BD0000640100203B
:103230001F4E000010B58AB00024079408941C218A
:1032400068460994FCF7D7FF1B481A4901603F21E3
:1032500084604160046119498461C160FFF7DDFA4F
:10326000002801D0FDF7F4FB079407A91248099440
:10327000FFF72EF8002801D0FDF7EAFB6020009050
:10328000019402940022694604940B48FFF731FA36
:10329000002801D0FDF7DCFB042269460648FFF751
:1032A00028FA002801D0FDF7D3FB0348FFF7D8F92F
:1032B0000AB010BD00040040B00100201F4E000005
:1032C00010B5184816490160174941600021816016
:1032D000C16001618161C16101620C224162426190
:1032E0008162FFF7D7FD002801D0FDF7B1FB002177
:1032F0000C48FFF7C6FB002801D0FDF7A9FB002111
:103300000848FFF79AFB002801D0FDF7A1FB05480C
:10331000FFF730FB002801D0FDF79AFB10BD00003D
:1033200000380140FC010020A0680600F8B5254CDB
:1033300009202056FDF74AF806460420205EFDF7D6
:1033400045F805466088FDF74CF8014620462A46B8
:10335000443000F03CF83146FCF7B1FFFDF748F887
:10336000254634352860E0801D202056FDF72EF8D4
:1033700007461820205EFDF729F80646E08AFDF78B
:1033800030F80146204632468C3000F020F83946AD
:10339000FCF795FFFDF72CF8A86060830A48C17818
:1033A0008900695A0BB281788900695A0AB241785A
:1033B000007889008000695A285A09B200B200F0EA
:1033C000E9F8F8BD080300200A000020FEE7FEB57A
:1033D000040014D0206C60640290E06B20640090C4
:1033E000A2611046E161FCF762FF0646E0632078C7
:1033F0000125ED07002804D0012838D035E0002051
:10340000FEBD31466068FCF75AFF60623146A06835
:10341000FCF755FFA16AFCF7F9FE0746A062606B56
:10342000A063206B606330460099FCF740FF206387
:10343000E26801461046FCF742FFE06238466169E7
:10344000FCF7F0FF606906D36840A16AFCF7EAFF69
:1034500002D260696840A062A16A606AFCF7D6FE89
:10346000E16A31E0206968402062206AFEBD304692
:103470000099FCF71CFF6168FCF721FF6062019076
:103480003146A068FCF71BFF0746A062606BA06393
:10349000206B606301210098FCF78CFF3146FCF73C
:1034A0000AFF0299FCF7B2FE2063E268014610466B
:1034B000FCF705FF0646E06239460198FCF7A6FED8
:1034C0003146FCF7A3FE216AFCF7A0FE20622169C9
:1034D000FCF7A8FF2069C7D36840216AFCF7A2FF68
:1034E000C3D2BFE710B5029C002814D0002A12D026
:1034F0000170116841605168816091680C301AC098
:1035000000210162C1618161816041610161C1602D
:10351000C1628162416210BD7047704770B5184A40
:10352000184B19490020145C0C541C5C0D18401CED
:10353000C0B22C710428F6D3144A00200A23434356
:103540009C180B18257A1D72401C647AC0B21C733B
:103550000428F3D3102300200A244443145B401CA6
:10356000250ACD54CD189B1CC0B26C709BB20428A8
:10357000F2D3182204490648FDF7F0FA70BD0000A6
:103580000E0000200A0000203C0400200803002058
:1035900000F80008C11303464B40591A10B589B210
:1035A000002801DD012000E00020404280B20C46EE
:1035B000044001239B079C6381435963D013114648
:1035C0004140081A80B2002A01DD012100E00021FB
:1035D000494289B20346034A0B40936388435063D0
:1035E00010BD000000040040F8B5042219491A4833
:1035F000FDF780FE1749891E8D1C0870002802D037
:1036000000202880A880154841790129FCD1124862
:10361000FDF7CAFE124E134C30784000295A08209C
:103620002056FDF72DFB21880127401ABF02C01943
:103630000005000D6080B0784000295A1C202056FB
:10364000FDF71EFBA18A401AC0190005000DE0829B
:10365000F8BD00004400002058000020DC000020DD
:103660000E0000200803002010B5FEF7A9F910BDD8
:1036700030B593B038216846FCF7BDFD0025012028
:103680000E950F95109540021195FEF70DFA022444
:10369000E001039000944020059008200A908003E8
:1036A0000B900320079440060C9008942007049583
:1036B0000D9009956846FEF7FBFB002801D072B615
:1036C000FEE707200EA931C102210EA81195FEF7D1
:1036D000E9FA002801D072B6FEE713B030BD70479A
:1036E00010B50248FEF718FF10BD000018010020B9
:1036F000F0B502681E4B0124A4071E4D984203D06A
:10370000A04201D0A84203D17026B2434E68324392
:10371000194E1A4F98420AD0A04208D0A84206D0AB
:10372000174CA04203D0B04201D0B84204D10324C8
:103730002402A243CC6822438024A2434C69224342
:1037400002608A68C2620A688262984203D0B0420C
:1037500001D0B84201D109690163012141610169C8
:10376000C90703D00169490849000161F0BD0000A3
:10377000002C01400004004000440140004801408A
:103780000020004010B5CB06DB0E0121046A9940F1
:103790008C430462016A9A401143016210BD30B546
:1037A0008468FF252D021B021343AC430B432343C4
:1037B000836030BD8268034B1A400A4307210A43E5
:1037C000826070478FFFCFFFF0B5056A026A52082A
:1037D0005200026243688269164C184E22409208D9
:1037E0000C6892001443022295438A682A43124DC2
:1037F000A84204D0B04202D0114FB84206D10827E7
:10380000BA43CF681743042297433A46A84204D0EC
:10381000B04202D00A4DA84206D103252D02AB4387
:103820004D691D438B692B43436084614968416343
:103830000262F0BD8FFFFEFF002C014000440140FA
:103840000048014070B5046A026A10239A4302627C
:1038500043688269164D2A4003252D02AA430D684C
:103860002D021543202294438A6812012243114CF1
:10387000A04207D18024A243CC68402624012243E1
:10388000B24305E00C4CA04202D00C4CA04208D13F
:103890000324A402A3434C69A4001C438B699B002E
:1038A00023434360856149688163026270BD000003
:1038B000FF8FFFFE002C0140004401400048014002
:1038C00070B5046A026AFF2301339A4302624368B7
:1038D000C269164D2A4092080D68920015430122D4
:1038E000520294438A6812022243114CA04208D12A
:1038F0001446CA68C614B443120222430415A243F4
:1039000005E00C4CA04202D00B4CA04208D103248D
:103910002403A3434C6924011C438B691B012343EB
:103920004360C5614968C163026270BD8FFFFEFFDD
:10393000002C0140004401400048014030B5046AB9
:10394000026A01231B039A4302624368C269114D54
:103950002A4003252D02AA430D682D02154301229A
:10396000520394438A68120322430B4CA04205D0B1
:103970000A4CA04202D00A4CA04205D10124A40363
:10398000A3434C69A40123434360C56149680164B2
:10399000026230BDFF8FFFFE002C01400044014059
:1039A0000048014070B5036A026A01263604B2433A
:1039B00002624268456D0E4C25400C682C43750030
:1039C000AB430D892D041D430A4B984205D00A4B89
:1039D000984202D0094B984203D14B69B2431B0273
:1039E0001A434260446549688165056270BD000004
:1039F0008FFFFEFF002C01400044014000480140C1
:103A000070B5046A026A01231B059A430262426888
:103A1000436D104D2B400D682D021D4301235B05A6
:103A20009C430B891E050C4B2643984205D00B4B3B
:103A3000984202D00A4B984206D101241346A404AE
:103A40004A69A34392021A43426045654968C165C9
:103A5000066270BDFF8FFFFE002C01400044014054
:103A60000048014030B5036A046A640864000462D7
:103A70008469F025AC43120122430A24A3430B437B
:103A80008261036230BD30B5046A036A1025AB431E
:103A9000036283690F252D031203AB431A43A0234E
:103AA0009C43090121438261016230BDF8B504469F
:103AB000416E4034002915D0006881688068090192
:103AC0004D0F0A4E400F3746315C083F385CC0004E
:103AD000FCF70EFB6085785D715DC000FCF708FBAC
:103AE0002085F8BD01206085FAE70000AE48000897
:103AF00010B5018D090707D501684A680123DB036A
:103B00009A43836B1A434A60018DC90707D0016845
:103B10004A6801235B049A43C36A1A434A60018DD1
:103B2000890707D501684A6801231B049A43036B80
:103B30001A434A60018D490707D501684A68012385
:103B40009B049A43436B1A434A60018DC90607D50B
:103B50000268916801231B039943C36B1943916069
:103B6000018D890607D501688A6801235B039A43A2
:103B7000036C1A438A60018D490612D503685A689E
:103B800001210905446C8A4322435A60426C8A42EF
:103B900007D10268516803235B059943836C19437D
:103BA0005160018D090607D501684A680123DB04CD
:103BB000C06C9A4302434A6010BD0000FEB5054642
:103BC0000026803504462E61FDF7F4FE0190206842
:103BD000006820270007002817DA254800900022F7
:103BE00039042046019B00F081FA00280DD0EFF344
:103BF0001080012181F3108821680A6880239A438C
:103C00000A6080F31088AF6028E0206800684007F1
:103C100027D5174800900121002289052046019BE5
:103C200000F064FA00281CD0EFF31080012181F32A
:103C3000108821680A68FF2321339A430A6080F3C1
:103C40001088EFF31080012181F3108821688A68C1
:103C5000520852008A6080F31088EF602E710320B2
:103C6000FEBDAF60EF60E66626672E710020FEBDE8
:103C7000FFFFFF0110B5806A002201464031CA8370
:103C8000CA82FEF771FF10BDF8B5846A2046803005
:103C900081680546C66820688068002700060028FD
:103CA00006DA212904D156200753204600F0A4F853
:103CB00020688068400606D5222E04D15E20075376
:103CC000204600F067F82869102108432861204643
:103CD000FEF74AFFF8BD70B501460968806A0968B9
:103CE00000228906002938DB5E210A52EFF3108199
:103CF000012383F3108803681C68FF250135AC435A
:103D00001C6081F31088EFF31081012383F3108886
:103D100003689C68640864009C6081F31088EFF37A
:103D20001081012383F3108803689C684025AC430D
:103D30009C6081F3108820238C210B50C16E0129D7
:103D40000BD1EFF31081012383F3108803681C6803
:103D50001025AC431C6081F310880267C16E0129F5
:103D600002D0FFF72DF970BD5C21095AFEF756FE0F
:103D700070BD10B5806A01210167C16E012902D0B2
:103D8000FFF71FF910BD5C21095A4908FEF746FEEE
:103D900010BD000010B5EFF31081012282F31088EE
:103DA00002681368FF242134A343136081F3108851
:103DB000EFF31081012282F31088026893680D4CA2
:103DC0002340936081F31088C16E01290BD1EFF37A
:103DD0001081012282F31088026813681024A34323
:103DE000136081F3108820228C210A500021C166C3
:103DF000416710BDFEFFFFEF10B5EFF31081012208
:103E000082F3108802681368C024A343136081F30F
:103E10001088EFF31081012282F310880268936802
:103E20000124E405A343936081F3108820218030AE
:103E3000816010BDF8B50446016880682369E569B2
:103E40001843636900262B431843734A0B68734D6C
:103E50002B4003430B602068416803231B039943F5
:103E6000E368194341602168A069914201D0236A47
:103E700018438B686A4D2B4003438B602068C16AEE
:103E8000636A090909011943C162664923686648E2
:103E90008B420AD140698007800F09D001282CD0BD
:103EA000022828D0032816D113E060498B4201D1A3
:103EB000002111E093420ED14169032080020140AC
:103EC0000AD001208002091A17D0091A13D08142A2
:103ED00001D1082100E010210120554D554FC003AC
:103EE00093423DD100290AD0022911D0042909D0DA
:103EF000082934D10BE00221EEE70421ECE7FDF7BD
:103F00007DFF01E0FDF78EFF050001D179E0054658
:103F1000606A4000395A28460091FCF7E9F8676862
:103F200079007918814267D83903814264D300232C
:103F300028461946009AFCF705F9020E0902030209
:103F4000780811431818002251413A460023FCF723
:103F5000F9F803210902384A411A91424FD94BE03E
:103F6000E269824227D1002906D0022907D004291C
:103F700007D0082940D108E0FDF740FF03E02846BC
:103F800003E0FDF74FFF00283BD0616A4900795AF2
:103F9000FCF7AEF8616840004A088018FCF7A8F802
:103FA0000146264A1039914226D8511C014000078B
:103FB000400F084323E0002906D0022907D0042936
:103FC00007D0082918D108E0FDF718FF03E02846BC
:103FD00003E0FDF727FF002813D0616A4900795AF2
:103FE000FCF786F861684A088018FCF781F80146FA
:103FF000124A1039914201D9012602E080B22168AB
:10400000C86020460121403041850185002060675D
:10401000A0673046F8BD000000800040F369FFCF84
:10402000FFF4FF11003801404010024000440040FE
:104030000024F4008E480008FFFC0F00EFFF000092
:1040400070B5044681654030828300202546803566
:1040500028612221E9602968002919D0204BCB6210
:104060002B68204919632B681F4959632968134637
:104070008863A66D2168324624312868FDF7F8FA76
:10408000002805D0102028612020E860012070BDA4
:10409000206900280CD0EFF31080012181F31088F3
:1040A00021680A68FF2301331A430A6080F31088ED
:1040B000EFF31080012181F31088226893680B438D
:1040C000936080F31088EFF3108081F310882168EB
:1040D0008A6840231A438A6080F31088002070BDEC
:1040E000D73C0008733D0008893C0008FFB581B04B
:1040F00005460E46044680350A9F32E0781C30D0D3
:10410000FDF758FC0499401AB84218D8002F16D071
:1041100020680168490724D5802E22D0402E20D067
:10412000C169C94309070CD4082606622046FFF777
:1041300031FE2E6100202871012005B0F0BD032062
:10414000FBE7C069C04300050BD401202168C00211
:1041500008622046FFF71EFE2020286100202871FB
:10416000EDE72068C1693046884305D000210398F7
:104170008142C3D00020E0E70121F8E710B50248F2
:10418000FEF710FD10BD0000FC0100208307FF2298
:10419000DB0E9A408907090E9940002808DB830846
:1041A00009489B001B181868904308431860704723
:1041B0000007000F0838830804489B001B18D869C3
:1041C00090430843D861704700E400E000ED00E050
:1041D00002E008C8121F08C1002AFAD170477047D0
:1041E000002001E001C1121F002AFBD17047C1135A
:1041F0004840401A80B2704710B51C46029B8A4264
:1042000001D8204610BD884201D2084602E0904203
:1042100000D91046401A1B1B5843511AFBF77EFF6A
:10422000001900B210BDF8B50546079E06981C4659
:104230008A4213D98C4211D994420FD28319DF0FCD
:10424000FB185B101BB2A54203D200930346224623
:1042500001E0214600962846FFF7CEFFF8BD00009A
:104260001CB5FDF7B5FBFFF703FAFEF74FFFFEF7AE
:1042700031FFFFF725F8FEF797FFFEF7DBFFFEF7AC
:1042800059FFFEF7C7FEFE48FCF714FDFD48FEF798
:10429000A9F80021FB48FEF707FB0421F948FEF7C7
:1042A00003FBF948FEF79EF80021F748FEF7FCFAF9
:1042B0000421F548FEF7F8FA7D20C000FDF71EFA4C
:1042C000FCF7A2FCFCF7C6FAFCF730FAFFF78CF912
:1042D000EE48EF4902880A8080888880ED4DFFF71C
:1042E00083F9FDF767FBEA4C283C6062A061E97A3C
:1042F000002902D001290CD00EE0687B00280BD1E8
:10430000E5480078042801D1FDF7C0FB00F0AAFAC7
:10431000A1E06A7B002A03D0687B01287CD084E27C
:10432000297B022904D0012953D0002975D07FE2CE
:10433000DB49DA484860DB494860D648E2882038E3
:10434000C18C49008B180A22AA5652009B181FB232
:104350002389C918891809B20191008C41004018BD
:10436000192149014218081A12B206B20C20009213
:10437000A070FDF71FFB6169401AD0D4C448CA4B36
:1043800028380278C94C5000185E0E314643F313AA
:10439000FB1AA380009B4343D813019B181A208368
:1043A000BB482838416101214156002909DD521CD2
:1043B000D1B201700829B2D3082101700021C9438C
:1043C00005E0511E0170AAD2002101700121417047
:1043D0002BE2B34AB6495160B24A5160AD490A2254
:1043E0002039CB8CAA569A18E388D6180B8CF11A70
:1043F000268909B29B19D21813B2E269821A052ADA
:1044000029D3AA4E0222B25E8A4207DA891A4629C5
:1044100000DD4621891808E0A5E01EE08A4205DD9E
:10442000511A462900DD4621511A0AB2B2801621DE
:10443000715E994205DA5A1A462A00DD4622511861
:1044400006E0994205DDCA1A462A00DD4622891A8D
:1044500009B23183E06100207EE09149954A4A60CB
:10446000904901264A608A49B6022839096A411AE8
:104470000A2929D38D4A0221515EB14205DA731A05
:10448000462B00DD4623591806E0B14205DD8B1BA3
:10449000462B00DD4623C91A09B291801621515ED0
:1044A000B14205DA731A462B00DD4623591806E09F
:1044B000B14205DD8B1B462B00DD4623C91A09B22C
:1044C0001183734928390862784C6088301A00B229
:1044D000FFF78DFEC82801D9012700E0002760887A
:1044E000301A00B2FFF783FEC82801D9012000E08E
:1044F000002007422DD0E08A301A00B2FFF777FE85
:10450000FBF76FFF07466088301A00B2FFF76FFEB7
:10451000FBF767FF6749FBF7D2FE3946FBF70CFF55
:104520005F4948606088301A00B2FFF760FEFBF711
:1045300058FF0746E08A301A00B2FFF758FEFBF733
:1045400050FF5C49FBF7BBFE3946FBF7F5FE5549CA
:1045500048604F4C0020283C207001206070FDF71F
:1045600029FA606161E10029FCD14B4800780028FC
:1045700012D14E4A0527464903461A390F54091FDE
:104580000F540A26734300219E183172401C717229
:10459000C0B2D1520428EED33C493D4A0B88108862
:1045A000181A00B26B46188089889288891A0EB250
:1045B0009E80FCF72FFA404F3988401838803046EB
:1045C000FCF728FAB9884018B880A87B022804D0E4
:1045D00001287BD0002874D027E12F4901200870E2
:1045E00000F040F93148017A002902D0017F00290A
:1045F0003ED1E178002902D0012939D11CE0002602
:104600002D4C7700E05F2D4A0146FF31F431914295
:104610000DD91F491A390E70FCF740FB2349087267
:104620000020E0531A482838C178491CC170761C14
:10463000F6B2042EE4D31BE000261F4C7700E05FA7
:104640001E490246FF32F4328A420DD910491A3906
:104650008E70FCF723FB154908770020E0530C48C7
:104660002838C178491CC170761CF6B2042EE4D3F8
:10467000074A00201A3A11784B000F49C85221E02E
:104680005800002064010020B001002044000020F8
:104690002800002020040020400000200000F041FD
:1046A0004C030020940300207C48000808030020ED
:1046B00000002041000040414C000020E6030000C3
:1046C00004E02DE0927852008852AEE05D4C2088E4
:1046D000002802D0A08A002811D15B4E5B4F3078B1
:1046E0004000395A08202056FCF7CAFA2080B078DA
:1046F0004000395A1C202056FCF7C2FAA08260887C
:10470000534941187D20C00081427DD85049E08A3C
:104710004942884278D34F49884275D8022182E0C5
:104720004D480078022877D147480E380079002894
:1047300002D0012862D130E00021012080074163CE
:10474000FF21F5318163454F00240A202146414372
:104750003C483A460E183F490220305EC831FCF70B
:104760000BF8002814D038483A49001F0470022082
:10477000305E3A46C831FBF7FFFF70727D20C00003
:10478000C1064863886330480E380179491C0171BD
:10479000641CE4B2042CD8D330E0314800214163DA
:1047A000FF21F5318163284E0024361F3078A04266
:1047B00020D00A20214641432248284A0F18254983
:1047C0000220385EC831FBF7D7FF002812D02149FC
:1047D000B4700220385E214AC831FBF7CDFF7872F1
:1047E0007D201F49C0004863886317490E39087946
:1047F000401C0871641CE4B2042CD7D31148417AE0
:10480000002909D0407F01E00FE005E0002803D037
:1048100011480321017003E00F480078032804D1F8
:10482000FEF77CFE04210C480170E87A012801D1D2
:10483000FEF77CFD0548044902881A310A80808809
:1048400088804CE5080300200E0000204400002072
:1048500024FAFFFFC40900004000002014050000F6
:104860000004004000200121890748638863024951
:1048700048638863704700000004004040782D6260
:104880000040C72B000039D400C0D39DC087010071
:1048900002000400060008000A000C0010002000BE
:1048A000400080000001010101030701000008042D
:1048B00002040801010100000000000000000000E7
:1048C00000000000000000000000000000000000E8
:1048D00000000000000000000100000002000000D5
:1048E00003000000040000000600000007000000B4
:1048F00008000000090000000000000000000000A7
:1049000000000000000000000100000002000000A4
:1049100003000000040000000000A04100000000AF
:10492000000000000000A0410000000000000000A6
:1049300050490008000000204C000000D041000851
:104940009C4900084C0000200C080000E0410008D1
:104950000D0100000000D007D0070505050505057D
:10496000050500000000000000000000000000003D
:104970000000000000000000000000000000000037
:104980000100000004000000000000000024F4000A
:0C4990000000000000000000000000001B
:04000005080000C12E
:00000001FF
