:040ADE0002250000ED
:100A2100120A930526E52670020525750C03FBAA1B
:100A3100257D017F01120A607FE87E03120AA780EB
:010A4100E2D2
:060ABB00C2A58F80D2A746
:080AC1007F027EEFDEFEDFFC88
:010AC900220A
:0A0ACA00C2A6120ABBC2A7020AC1AD
:100A4200CFCDCFCECCCE12083F7C007D0A12083F1C
:040A5200ED2430FF60
:0A0A5600D2A6120ABBC2A7020AC111
:100A7D00AE07BE0104ED148006BE0209ED243F440D
:060A8D0080FF120ACA22DC
:100A93007F38120ACA7F0C120ACA7F06120ACA7F5B
:040AA30001020ACA78
:0A0AD400AC03120A7DAF04020A56BB
:0609FE008B228A238924EC
:100A0400120A7DE4FDAB22AA23A9248D82758300FA
:0C0A1400120800FF6006120A560D80E96F
:010A200022B3
:0C09CB007F0AEA24FFFDE434FFFC7E00FC
:0809D7008E0D8F0E8C0F8D10A8
:1009DF007F017E00E4FBEBC39510E50F6480F87494
:0E09EF008098500AAC0DAD0E12082D0B80E85A
:0109FD0022D7
:040A60008A0A8B0B68
:100A6400120A7DAA0CEAD39400400D1209CBAC0AF9
:080A7400AD0B120A421A80EDDD
:010A7C002257
:10092000120A7DC3EA64809480400B7F2B120A5622
:100930008A168B17800E7F2D120A56C3E49BF5177B
:10094000E49AF516AA15EAD39400400D1209CBAC2F
:0909500016AD17120A421A80EDDF
:01095900227B
:04095A008A1A8B1B4F
:10095E00120A7DAA1CEAD3940040297F101209CDF9
:10096E00AC1AAD1BCFCDCFCECCCE12083FEF540F6D
:10097E00FEC3940AEE5004243080022437FF120A7C
:04098E00561A80D1A4
:010992002242
:040993008A1F8B200C
:10099700120A7DAA21EAD394004028EA24FFFDE445
:1009A70034FFFC7F027E001209D7AC1FAD20CFCDEC
:1009B700CFCECCCE12083FEF54012430FF120A5697
:0309C7001A80D2C1
:0109CA00220A
:100AA700EF4E600F7D027CEFDCFEDDFCEF1F70F088
:030AB7001E80EDB1
:010ABA002219
:030000000208945F
:0C089400787FE4F6D8FD7581260208DBB1
:10080000BB010CE58229F582E5833AF583E02250AD
:1008100006E92582F8E622BBFE06E92582F8E222F7
:0D082000E58229F582E5833AF583E4932211
:10082D00EF8DF0A4A8F0CF8CF0A428CE8DF0A42EDF
:02083D00FE2299
:10083F00BC000BBE0029EF8DF084FFADF022E4CC9D
:10084F00F875F008EF2FFFEE33FEEC33FCEE9DEC66
:10085F00984005FCEE9DFE0FD5F0E9E4CEFD22EDAC
:10086F00F8F5F0EE8420D21CFEADF075F008EF2FF6
:10087F00FFED33FD4007985006D5F0F222C398FDE7
:05088F000FD5F0EA2284
:1008A000020A21E493A3F8E493A34003F68001F243
:1008B00008DFF48029E493A3F85407240CC8C33359
:1008C000C4540F4420C8834004F456800146F6DF28
:1008D000E4800B0102040810204080900ADEE47ED0
:1008E000019360BCA3FF543F30E509541FFEE4931D
:1008F000A360010ECF54C025E060A840B8E493A3E4
:10090000FAE493A3F8E493A3C8C582C8CAC583CA0E
:10091000F0A3C8C582C8CAC583CADFE9DEE780BEC6
:010AE2000013
:00000001FF
