:0608D90002080000C1004E
:1008B6005389F0438901758CFC758A18C28DD2AFB5
:0508C600D2A9D28C2232
:03000B0002088C5C
:10088C00C0E0C0D0758CFC758A180509E5097002AA
:10089C000508C3E50994F4E50894014008D20075F5
:0A08AC000800750900D0D0D0E0323A
:0E08CB001208B6C2A03000FDC200B2A080F735
:03000000020800F3
:0C080000787FE4F6D8FD758120020847DF
:10080C000208CBE493A3F8E493A34003F68001F22F
:10081C0008DFF48029E493A3F85407240CC8C333ED
:10082C00C4540F4420C8834004F456800146F6DFBC
:10083C00E4800B01020408102040809008D9E47E6B
:10084C00019360BCA3FF543F30E509541FFEE493B1
:10085C00A360010ECF54C025E060A840B8E493A378
:10086C00FAE493A3F8E493A3C8C582C8CAC583CAA3
:10087C00F0A3C8C582C8CAC583CADFE9DEE780BE5B
:0108DF000018
:00000001FF
