:0A0993000808FEFDFBF7EFDFBF7F51
:0809680074082511F8E6F5A062
:0D097000007F047ECD7DBBDDFEDEFCDFFAE6
:01097D002257
:1008D90075A0FE12097075A0FD12097075A0FB12B2
:1008E900097075A0F712097075A0EF12097075A04B
:1008F900DF12097075A0BF12097075A07F12097007
:0209090080CE9E
:1009340075A0FE120970E5A025E04401F5A0E5A02C
:0B094400B47FF012097075A0FE80E87F
:10090B0075A0FE120970E5A025E04401F5A0E5A055
:10091B00B47F14120970E5A0C3134480F5A0E5A0C1
:09092B00B4FE0280DE80EC80DAEB
:10088C00E4F510F5117B007A00790812097EC3E5B6
:10089C00119FE5109E500D1209680511E51170E5C8
:1008AC00051080E17B007A00790812097EEF24FFA5
:1008BC00F511EE34FFF510C3E5106480948040C050
:0D08CC00120968E511151170EE151080EA93
:03099E0002088CC0
:03000000020800F3
:0C080000787FE4F6D8FD758111020847EE
:10097E00E4FFFE12094F600C0FEF70010E09E970D3
:05098E00F20A80EF22D7
:10080C0002099EE493A3F8E493A34003F68001F25B
:10081C0008DFF48029E493A3F85407240CC8C333ED
:10082C00C4540F4420C8834004F456800146F6DFBC
:10083C00E4800B0102040810204080900993E47EB0
:10084C00019360BCA3FF543F30E509541FFEE493B1
:10085C00A360010ECF54C025E060A840B8E493A378
:10086C00FAE493A3F8E493A3C8C582C8CAC583CAA3
:10087C00F0A3C8C582C8CAC583CADFE9DEE780BE5B
:01099D000059
:10094F00BB010689828A83E0225002E722BBFE02A6
:09095F00E32289828A83E49322D9
:00000001FF
