:0A0936000808FEFDFBF7EFDFBF7FAE
:10092200EF4E600F7D027CEFDCFEDDFCEF1F70F00E
:030932001E80ED37
:01093500229F
:03088C0075A0FE56
:10088F00E4F510F5117B007A00790812090DC3E524
:10089F00119FE5109E501974082511F8E6F5A07FF9
:1008AF00647E001209220511E51170D9051080D55B
:1008BF007B007A00790812090DEF24FFF511EE3451
:1008CF00FFF510C3E5106480948040B474082511BF
:1008DF00F8E6F5A07F327E00120922E5111511709E
:0508EF00E2151080DE9F
:03000000020800F3
:0C080000787FE4F6D8FD758111020847EE
:10090D00E4FFFE1208F4600C0FEF70010E09E970A0
:05091D00F20A80EF2248
:10080C0002088CE493A3F8E493A34003F68001F26E
:10081C0008DFF48029E493A3F85407240CC8C333ED
:10082C00C4540F4420C8834004F456800146F6DFBC
:10083C00E4800B0102040810204080900936E47E0D
:10084C00019360BCA3FF543F30E509541FFEE493B1
:10085C00A360010ECF54C025E060A840B8E493A378
:10086C00FAE493A3F8E493A3C8C582C8CAC583CAA3
:10087C00F0A3C8C582C8CAC583CADFE9DEE780BE5B
:0109400000B6
:1008F400BB010689828A83E0225002E722BBFE0202
:09090400E32289828A83E4932234
:00000001FF
