:100BAE0070617373776F72643A00204F4B00455239
:060BBE005200202020007F
:0B0C1100011A00021B00000218000086
:10080000120BEE7BFF7A0B79AE7D017F01120B504C
:100810001209EA8F1AE51A60F7D3940A5041C3E52A
:10082000199404E51894005028AE1BAF1C7C007D81
:100830000A1208F78E1B8F1CE51A75F00A84E5F082
:10084000251CF51CE4351BF51B0519E5197002057F
:1008500018750C04AB1CAA1B7D017F02120B91E5DD
:100860001A640B7036E51CB4290DE51BB409087B2E
:10087000FF7A0B79B880067BFF7A0B79BC7D0E7FFF
:1008800001120B50E4F51BF51CF518F519750C0455
:10089000AB1CAA1B7D017F02120B91E51A640C6050
:1008A00003020810F51BF51CF518F5197BFF7A0BF0
:1008B00079C07D0E7F01120B50750C04AB1CAA1B76
:0A08C0007D017F02120B9102081067
:100BDA00EF4E600F7D027CEFDCFEDDFCEF1F70F054
:030BEA001E80ED7D
:010BED0022E5
:060C0200C2A58F80D2A7FD
:080C08007F027EEFDEFEDFFC3F
:010C100022C1
:0A0C1D00C2A6120C02C2A7020C08C6
:100B7300CFCDCFCECCCE1209097C007D0A12090954
:040B8300ED2430FF2E
:0A0B8700D2A6120C02C2A7020C084D
:100BC400AE07BE0104ED148006BE0209ED243F44C5
:060BD40080FF120C1D223F
:100BEE007F38120C1D7F0C120C1D7F06120C1D7F00
:040BFE0001020C1DC7
:0A0C2700AC03120BC4AF04020B87EC
:060B50008B088A09890AE6
:100B5600120BC4E4FDAB08AA09A90A8D82758300AD
:0C0B66001208CAFF6006120B870D80E920
:010B72002260
:0C0B1D007F0AEA24FFFDE434FFFC7E00A8
:080B29008E0D8F0E8C0F8D1054
:100B31007F017E00E4FBEBC39510E50F6480F87440
:0E0B41008098500AAC0DAD0E1208F70B80E83C
:010B4F002283
:040B91008A0A8B0B36
:100B9500120BC4AA0CEAD39400400D120B1DAC0A2B
:080BA500AD0B120B731A80ED79
:010BAD002225
:100A7200120BC4C3EA64809480400B7F2B120B8755
:100A82008A168B17800E7F2D120B87C3E49BF517F6
:100A9200E49AF516AA15EAD39400400D120B1DAC88
:090AA20016AD17120B731A80ED5A
:010AAB002228
:040AAC008A1F8B20F2
:100AB000120BC4AA21EAD3940040297F10120B1F05
:100AC000AC1FAD20CFCDCFCECCCE120909EF540F45
:100AD000FEC3940AEE5004243080022437FF120B28
:040AE000871A80D120
:010AE40022EF
:040AE5008A248B25AF
:100AE900120BC4AA26EAD394004028EA24FFFDE4A5
:100AF90034FFFC7F027E00120B29AC24AD25CFCD3B
:100B0900CFCECCCE120909EF54012430FF120B8746
:030B19001A80D26D
:010B1C0022B6
:1009EA00E4F508F50975900FE590640F60777F14B8
:1009FA007E00120BDAE590640F6067AF90EF24F582
:100A0A00601024FE60111460132407701275090126
:100A1A00800D75090280087509038003750904753C
:100A2A0090F0AF90EF2450601124E0601124F06040
:100A3A001124707013850909800E740480067408E5
:100A4A008002740C2509F509C3E508648094B25044
:100A5A0011E59064F0600B7F147E00120BDA050832
:070A6A0080E6AF09227F00C6
:010A71002262
:0300000002095E94
:0C095E00787FE4F6D8FD7581260209A51B
:1008CA00BB010CE58229F582E5833AF583E02250E3
:1008DA0006E92582F8E622BBFE06E92582F8E2222D
:0D08EA00E58229F582E5833AF583E4932247
:1008F700EF8DF0A4A8F0CF8CF0A428CE8DF0A42E15
:02090700FE22CE
:10090900BC000BBE0029EF8DF084FFADF022E4CCD2
:10091900F875F008EF2FFFEE33FEEC33FCEE9DEC9B
:10092900984005FCEE9DFE0FD5F0E9E4CEFD22EDE1
:10093900F8F5F0EE8420D21CFEADF075F008EF2F2B
:10094900FFED33FD4007985006D5F0F222C398FD1C
:050959000FD5F0EA22B9
:10096A00020800E493A3F8E493A34003F68001F29B
:10097A0008DFF48029E493A3F85407240CC8C3338E
:10098A00C4540F4420C8834004F456800146F6DF5D
:10099A00E4800B0102040810204080900C11E47ED0
:1009AA00019360BCA3FF543F30E509541FFEE49352
:1009BA00A360010ECF54C025E060A840B8E493A319
:1009CA00FAE493A3F8E493A3C8C582C8CAC583CA44
:1009DA00F0A3C8C582C8CAC583CADFE9DEE780BEFC
:010C1C0000D7
:00000001FF
